:100000000C9434000C9451000C9451000C94510049
:100010000C9451000C9451000C9451000C9451001C
:100020000C9451000C9451000C9451000C9451000C
:100030000C9451000C9451000C9451000C945100FC
:100040000C9451000C9451000C946F000C945100CE
:100050000C9451000C9451000C9451000C945100DC
:100060000C9451000C94510011241FBECFEFD8E026
:10007000DEBFCDBF11E0A0E0B1E0E4ECF3E002C0F0
:1000800005900D92AC32B107D9F721E0ACE2B1E0B6
:1000900001C01D92A733B207E1F70E94B6010C948C
:1000A000E0010C940000CF93DF9300D0CDB7DEB712
:1000B00080E391E00E944B01898382E391E00E94FA
:1000C0004B018A8384E391E00E944B01482F6A81AF
:1000D00089810F900F90DF91CF910C941E011F9298
:1000E0000F920FB60F9211242F933F934F935F936C
:1000F0006F937F938F939F93AF93BF93CF93EF9320
:10010000FF930E948001C82F80912C0190912D01B6
:10011000019709F041C0CF3711F0C830F1F4809158
:100120002E0190912F0118161906B4F580912E0119
:1001300090912F01019790932F0180932E01805D64
:100140009E4FFC01108288E00E94790180E20E94AB
:10015000790188E00E9479011FC0CD3079F5809146
:100160002E0190912F019C012F5F3F4F30932F0163
:1001700020932E01805D9E4FFC01108280E091E073
:100180000E94870110922F0110922E0182E090E0D0
:1001900090932D0180932C01FF91EF91CF91BF910E
:1001A000AF919F918F917F916F915F914F913F910F
:1001B0002F910F900FBE0F901F9018958C2F0E94BB
:1001C000A801811549F38CEE8C0F8B3628F78091AE
:1001D0002E0190912F010697FCF680912E019091AF
:1001E0002F01069784F4E0912E01F0912F01E05D3C
:1001F000FE4FC08380912E0190912F010196909324
:100200002F0180932E018C2FA5CF8AB188668AB9E1
:1002100084B5836084BD84B5806A84BD85B5826001
:1002200085BDE0EBF0E08081836080838081806821
:100230008083E1EB8081826080830895811104C016
:1002400094B59F7D94BD5D98611104C094B59F776E
:1002500094BD5E98411106C09091B0009F77909335
:10026000B0005B98811521F094B5906294BD5D9AC1
:10027000611521F094B5906894BD5E9A411531F0F6
:100280009091B00090689093B0005B9A88BD67BD74
:100290004093B4000895CF93DF9300D00F92CDB771
:1002A000DEB78A839B83FC0180810E94940189834D
:1002B000EA81FB8181810E94940199819295907FCE
:1002C000890F0F900F900F90DF91CF9108951092AA
:1002D000C50080E18093C40088E98093C100E2EC0E
:1002E000F0E0808186608083E0EC808182608083A2
:1002F00008959091C00095FFFCCF8093C6000895AB
:100300008091C00087FFFCCF8091C6000895CF93F5
:10031000DF93EC018881811103C0DF91CF910895B3
:1003200021960E947901F6CF982F80ED890F8A30AF
:1003300070F08FEB890F863018F489EC890F0895DF
:100340008FE9890F863010F489EAF8CF80E00895AC
:1003500090ED980F9A3040F08F7D9FEB980F81E0E1
:10036000963018F080E0089581E008958FB7806896
:100370008FBF0E9467010E940501C1E0D0E080911B
:100380002C0190912D01892B41F483E091E00E9492
:100390008701D0932D01C0932C0180912C01909165
:1003A0002D01019761F380912C0190912D0102970D
:1003B00031F70E94530010922D0110922C01DFCFD3
:0403C000F894FFCFDF
:1003C4000A0D0043686F6F7365206120636F6C6F63
:1003D4007220696E207468697320666F726D61742F
:0C03E40020235252474742423A20230097
:00000001FF
