:100000000C9434000C9449000C9449000C94490061
:100010000C9449000C9449000C9449000C9449003C
:100020000C9449000C9449000C9449000C9449002C
:100030000C9449000C9449000C9449000C9449001C
:100040000C9449000C9449000C9449000C9449000C
:100050000C9449000C9449000C9449000C944900FC
:100060000C9449000C94490011241FBECFEFD8E036
:10007000DEBFCDBF11E0A0E0B1E0E0E6F3E002C0FA
:1000800005900D92A234B107D9F70E947D010C941E
:10009000AE010C940000ECEBF0E080818460808382
:1000A000E9EB80818D7F808388E48093B800089598
:1000B000ECEBF0E0808184698083089584EA80938A
:1000C000BC008091BC0087FFFCCF8091B900887F85
:1000D0008830D9F080E091E00E94C7000E9458006B
:1000E00080E78093BB0084E88093BC008091BC00D3
:1000F00087FFFCCF8091B900887F8831C9F081E10A
:1001000091E00E94C7000C9458008091B900887F4C
:10011000883031F78EE091E00E94C7008091B900ED
:10012000887F0E94D4008DE291E00E94C700D8CF62
:100130008091B900887F883149F48EE091E00E9477
:10014000C7008091B900887F0C94D4000895109264
:10015000C50080E18093C40088E98093C100E2EC8F
:10016000F0E0808186608083E0EC80818260808323
:1001700008959091C00095FFFCCF8093C60008952C
:100180008091C00087FFFCCF8091C6000895CF9377
:10019000DF93EC018881811103C0DF91CF91089535
:1001A00021960E94B900F6CFCF93DF93CDB7DEB78B
:1001B00064970FB6F894DEBF0FBECDBF91E1E0E3C8
:1001C000F1E0DE01119601900D929A95E1F7982FDA
:1001D00092959F70FE013196E90FF11D90819A8BE7
:1001E0008F70FE013196E80FF11D80818B8B1C8A88
:1001F000CE0142960E94C70064960FB6F894DEBF07
:100200000FBECDBFDF91CF910895982F80ED890F5C
:100210008A3070F08FEB890F863018F489EC890FE3
:1002200008958FE9890F863010F489EAF8CF80E0CD
:10023000089590ED980F9A3040F08F7D9FEB980FC6
:1002400081E0963018F080E0089581E00895EF9203
:10025000FF920F931F93CF93DF93CDB7DEB72A970B
:100260000FB6F894DEBF0FBECDBF8C0100977CF5B2
:100270008DE20E94B9001195019511097E018FEF61
:10028000E81AF80AF70120E030E0C8016AE070E0FF
:100290000E948601A9012F5F3F4F805D81938B01F2
:1002A000672B99F787010F5F1F4F040F151F0E155E
:1002B0001F05E9F42A960FB6F894DEBF0FBECDBF36
:1002C000DF91CF911F910F91FF90EF900895B1F6BC
:1002D00080E32A960FB6F894DEBF0FBECDBFDF9144
:1002E000CF911F910F91FF90EF900C94B900F801FE
:1002F00082918F010E94B900DACF0E94A7000E946C
:100300004B000E945E000E945800FFCF97FB072E13
:1003100016F4009407D077FD09D00E949A0107FCDB
:1003200005D03EF4909581959F4F08957095619505
:100330007F4F0895AA1BBB1B51E107C0AA1FBB1F1B
:10034000A617B70710F0A61BB70B881F991F5A9561
:10035000A9F780959095BC01CD010895F894FFCF41
:100360007374617274206572726F720A0D00307856
:10037000006D6173746572207472616E736D69745F
:100380007465722061636B206572726F720A0D0072
:1003900030313233343536373839616263646566FB
:0203A00000005B
:00000001FF
