:100000000C9434000C943E000C943E000C943E0082
:100010000C943E000C943E000C943E000C943E0068
:100020000C943E000C943E000C943E000C943E0058
:100030000C943E000C943E000C943E000C943E0048
:100040000C943E000C943E000C943E000C943E0038
:100050000C943E000C943E000C943E000C943E0028
:100060000C943E000C943E0011241FBECFEFD8E04C
:10007000DEBFCDBF0E9440000C945D000C940000D8
:10008000219A809180008368809380008091810014
:1000900088618093810080918100846080938100D9
:1000A0008AE698E1909387008093860084E294EF3B
:0E00B0009093890080938800FFCFF894FFCFD3
:00000001FF
