:100000000C9434000C943E000C943E000C943E0082
:100010000C943E000C943E000C943E000C943E0068
:100020000C943E000C943E000C943E000C943E0058
:100030000C943E000C943E000C943E000C943E0048
:100040000C943E000C943E000C943E000C943E0038
:100050000C943E000C943E000C943E000C943E0028
:100060000C943E000C943E0011241FBECFEFD8E04C
:10007000DEBFCDBF0E9440000C94A4000C94000091
:10008000219A8AB18B7E8AB98091800082688093A0
:10009000800080918100886180938100809181003F
:1000A00084608093810084E294EF90938700809332
:1000B00086008AE698E1909389008093880081E029
:1000C00090E02AE638E14A9924C04FEF59EF60E00A
:1000D000415050406040E1F700C000004A9BFECF15
:1000E0004FEF59EF60E0415050406040E1F700C0F1
:1000F00000008A3091050CF40196829FA001839F35
:10010000500D929F500D1124509389004093880008
:10011000DACF4C99D8CF4FEF59EF60E041505040C3
:100120006040E1F700C000004C9BFECF4FEF59EF5D
:1001300060E0415050406040E1F700C00000823074
:0C0140009105DCF20197D9CFF894FFCFB5
:00000001FF
