:100000000C9434000C9449000C9449000C94490061
:100010000C9449000C9449000C9449000C9449003C
:100020000C9449000C9449000C9449000C9449002C
:100030000C9449000C9449000C9449000C9449001C
:100040000C9449000C9449000C9449000C9449000C
:100050000C9449000C9449000C9449000C944900FC
:100060000C9449000C94490011241FBECFEFD8E036
:10007000DEBFCDBF11E0A0E0B1E0E4E5F6E002C0F4
:1000800005900D92A431B107D9F70E944F010C944D
:1000900028030C940000ECE7F0E080818860808306
:1000A0008081806C808308951092C50080E18093E8
:1000B000C40088E98093C100E2ECF0E080818660B2
:1000C0008083E0EC80818260808308959091C000FD
:1000D00095FFFCCF8093C60008958091C00087FFF4
:1000E000FCCF8091C6000895CF93DF93EC01888107
:1000F000811103C0DF91CF91089521960E9466007F
:10010000F6CFCF93DF93CDB7DEB764970FB6F894F1
:10011000DEBF0FBECDBF91E1E3E0F1E0DE0111965D
:1001200001900D929A95E1F7982F92959F70FE019C
:100130003196E90FF11D90819A8B8F70FE013196F7
:10014000E80FF11D80818B8B1C8ACE0142960E94A4
:10015000740064960FB6F894DEBF0FBECDBFDF917A
:10016000CF910895982F80ED890F8A3070F08FEB32
:10017000890F863018F489EC890F08958FE9890F6B
:10018000863010F489EAF8CF80E0089590ED980F5A
:100190009A3040F08F7D9FEB980F81E0963018F0F9
:1001A00080E0089581E00895EF92FF920F931F93EE
:1001B000CF93DF93CDB7DEB72A970FB6F894DEBFA3
:1001C0000FBECDBF282F81110FC080E32A960FB636
:1001D000F894DEBF0FBECDBFDF91CF911F910F917D
:1001E000FF90EF900C9466007E018FEFE81AF80AFA
:1001F000F70140E050E0DA014F5F5F4F822F6AE085
:100200000E947901905D9193922F282F9A3098F750
:1002100087010F5F1F4F0A0F1B1F0E151F0569F483
:100220002A960FB6F894DEBF0FBECDBFDF91CF91F7
:100230001F910F91FF90EF900895F80182918F0127
:100240000E946600EACFECE7F0E080818066808360
:10025000EAE7808180688083808187608083089559
:1002600080917A00806480937A0080917C00806223
:1002700080937C0080917A0086FDFCCF809179008C
:10028000089580917A00806480937A0080917A004A
:1002900086FDFCCF809178009091790008950E94AE
:1002A00023010E9454000E944101BC0180E090E0C3
:1002B0000E949A022EEA37E242EA53E40E94850144
:1002C00026EF38E24CE95FE30E94F2010E946402EB
:1002D000862F0E94D40080E091E00E9474002FEFEE
:1002E00089EF90E0215080409040E1F700C000008D
:1002F000DACF992778E0880F991F961708F0961B98
:10030000881F7A95C9F7809508955058BB27AA276A
:100310000E949D010C94EE020E94E00238F00E94BF
:10032000E70220F039F49F3F19F426F40C94DD0223
:100330000EF4E095E7FB0C94D702E92F0E94FF0230
:1003400058F3BA17620773078407950720F079F40A
:10035000A6F50C9421030EF4E0950B2EBA2FA02DD8
:100360000B01B90190010C01CA01A0011124FF2762
:10037000591B99F0593F50F4503E68F11A16F0405D
:10038000A22F232F342F4427585FF3CF469537955C
:100390002795A795F0405395C9F77EF41F16BA0B21
:1003A000620B730B840BBAF09150A1F0FF0FBB1FCF
:1003B000661F771F881FC2F70EC0BA0F621F731F18
:1003C000841F48F4879577956795B795F7959E3F75
:1003D00008F0B0CF9395880F08F09927EE0F979506
:1003E000879508950E9406020C94EE020E94E7028F
:1003F00058F00E94E00240F029F45F3F29F00C948D
:10040000D70251110C9422030C94DD020E94FF02CA
:1004100068F39923B1F3552391F3951B550BBB2733
:10042000AA2762177307840738F09F5F5F4F220F78
:10043000331F441FAA1FA9F335D00E2E3AF0E0E86F
:1004400032D091505040E695001CCAF72BD0FE2FB9
:1004500029D0660F771F881FBB1F2617370748074D
:10046000AB07B0E809F0BB0B802DBF01FF27935805
:100470005F4F3AF09E3F510578F00C94D7020C94F0
:1004800022035F3FE4F3983ED4F386957795679512
:10049000B795F7959F5FC9F7880F911D969587953A
:1004A00097F90895E1E0660F771F881FBB1F621759
:1004B00073078407BA0720F0621B730B840BBA0B17
:1004C000EE1F88F7E09508950E946B026894B111C1
:1004D0000C94220308950E94070388F09F5798F018
:1004E000B92F9927B751B0F0E1F0660F771F881F39
:1004F000991F1AF0BA95C9F714C0B13091F00E9453
:100500002103B1E008950C942103672F782F8827E9
:10051000B85F39F0B93FCCF3869577956795B39579
:10052000D9F73EF490958095709561957F4F8F4FE8
:100530009F4F0895E89409C097FB3EF490958095ED
:10054000709561957F4F8F4F9F4F9923A9F0F92F99
:1005500096E9BB279395F695879577956795B79517
:10056000F111F8CFFAF4BB0F11F460FF1BC06F5FFD
:100570007F4F8F4F9F4F16C0882311F096E911C00F
:10058000772321F09EE8872F762F05C0662371F030
:1005900096E8862F70E060E02AF09A95660F771F44
:1005A000881FDAF7880F9695879597F9089597F938
:1005B0009F6780E870E060E008959FEF80EC089509
:1005C00000240A9416161706180609060895002432
:1005D0000A9412161306140605060895092E0394AC
:1005E000000C11F4882352F0BB0F40F4BF2B11F420
:1005F00060FF04C06F5F7F4F8F4F9F4F089557FD7F
:100600009058440F551F59F05F3F71F04795880F80
:1006100097FB991F61F09F3F79F087950895121617
:1006200013061406551FF2CF4695F1DF08C01616C3
:1006300017061806991FF1CF869571056105089474
:100640000895E894BB2766277727CB0197F908958B
:04065000F894FFCF4C
:100654000D0A00303132333435363738396162634C
:040664006465660063
:00000001FF
