:100000000C9434000C9449000C9449000C94490061
:100010000C9449000C9449000C9449000C9449003C
:100020000C9449000C9449000C9449000C9449002C
:100030000C9449000C9449000C9449000C9449001C
:100040000C9449000C9449000C9449000C9449000C
:100050000C9449000C9449000C9449000C944900FC
:100060000C9449000C94490011241FBECFEFD8E036
:10007000DEBFCDBF11E0A0E0B1E0E2E6F4E002C0F7
:1000800005900D92A636B107D9F70E94D5010C94C0
:100090002F020C9400008093BB0084E88093BC0086
:1000A0008091BC0087FFFCCF8091B900887F8832A7
:1000B00031F080E091E00E94D8000C94CF010895C7
:1000C000CF93DF93CDB7DEB764970FB6F894DEBF5A
:1000D0000FBECDBF91E1E4E1F1E0DE0111960190A8
:1000E0000D929A95E1F7982F92959F70FE013196A7
:1000F000E90FF11D90819A8B8F70FE013196E80F08
:10010000F11D80818B8B1C8ACE0142960E94D80003
:1001100064960FB6F894DEBF0FBECDBFDF91CF91CE
:1001200008951F93CF93DF93C6E0D0E014EC1093B3
:10013000BC008091BC0087FFFCCF8091BB000E9477
:10014000600080E20E94CA00219789F784EC8093C6
:10015000BC008091BC0087FFFCCF8091BB000E9457
:10016000600085E291E0DF91CF911F910C94D8005F
:100170001092C50080E18093C40088E98093C1009B
:10018000E2ECF0E0808186608083E0EC8081826038
:10019000808308959091C00095FFFCCF8093C600A6
:1001A00008958091C00087FFFCCF8091C60008951C
:1001B000CF93DF93EC018881811103C0DF91CF9150
:1001C000089521960E94CA00F6CFCF93DF93CDB752
:1001D000DEB764970FB6F894DEBF0FBECDBF91E1D6
:1001E000E8E2F1E0DE01119601900D929A95E1F7B7
:1001F000982F92959F70FE013196E90FF11D908125
:100200009A8B8F70FE013196E80FF11D80818B8BE8
:100210001C8ACE0142960E94D80064960FB6F894CC
:10022000DEBF0FBECDBFDF91CF910895982F80ED37
:10023000890F8A3070F08FEB890F863018F489ECC3
:10024000890F08958FE9890F863010F489EAF8CF75
:1002500080E0089590ED980F9A3040F08F7D9FEBED
:10026000980F81E0963018F080E0089581E00895BD
:10027000EF92FF920F931F93CF93DF93CDB7DEB72B
:100280002A970FB6F894DEBF0FBECDBF8C01009742
:100290007CF58DE20E94CA001195019511097E013D
:1002A0008FEFE81AF80AF70120E030E0C8016AE0B1
:1002B00070E00E940702A9012F5F3F4F805D81938C
:1002C0008B01672B99F787010F5F1F4F040F151FD5
:1002D0000E151F05E9F42A960FB6F894DEBF0FBE7F
:1002E000CDBFDF91CF911F910F91FF90EF900895B7
:1002F000B1F680E32A960FB6F894DEBF0FBECDBFED
:10030000DF91CF911F910F91FF90EF900C94CA0055
:10031000F80182918F010E94CA00DACFECEBF0E085
:10032000808184608083E9EB80818D7F808388E495
:100330008093B8000895CF93C82F84EA8093BC00BF
:100340008091BC0087FFFCCF8091B900887F883006
:1003500021F089E391E00E94D80080E7C13011F0DC
:1003600018F481E78093BB0084E88093BC008091FF
:10037000BC0087FFFCCFC13051F48091B900887F69
:10038000883159F087E491E0CF910C94D80028F49B
:100390008091B900887F8034F4CFCF910895ECEB41
:1003A000F0E080818469808308950E94B8000E94F3
:1003B0008E0181E00E949B018FE39CE90197F1F798
:1003C00000C000008CEA0E944B0083E30E944B00B7
:1003D00080E00E944B000E94CF019FEF27EE83E058
:1003E000915020408040E1F700C0000080E00E9472
:1003F0009B010E9491000E94CF019FEF21EE84E0BB
:10040000915020408040E1F700C00000D2CF97FB20
:10041000072E16F4009407D077FD09D00E941B0226
:1004200007FC05D03EF4909581959F4F08957095F7
:1004300061957F4F0895AA1BBB1B51E107C0AA1FFE
:10044000BB1FA617B70710F0A61BB70B881F991F75
:100450005A95A9F780959095BC01CD010895F8941F
:02046000FFCFCC
:100462006572726F72204D545F444154415F414343
:100472004B0A0D0030313233343536373839414288
:1004820043444546000D0A003031323334353637A5
:1004920038396162636465660073746172742065E1
:1004A20072726F720A0D006D6173746572207472DC
:1004B200616E736D69747465722061636B2065721D
:0604C200726F720A0D00CA
:00000001FF
