:100000000C9434000C943E000C943E000C943E0082
:100010000C943E000C943E000C943E000C943E0068
:100020000C943E000C943E000C943E000C943E0058
:100030000C943E000C943E000C943E000C943E0048
:100040000C943E000C943E000C946C000C943E000A
:100050000C943E000C943E000C943E000C943E0028
:100060000C943E000C943E0011241FBECFEFD8E04C
:10007000DEBFCDBF0E9494000C9499000C94000048
:100080001092C50080E18093C40088E98093C1008C
:10009000E2ECF0E0808186608083E0EC8081826029
:1000A000808308959091C00095FFFCCF8093C60097
:1000B00008958091C00087FFFCCF8091C60008950D
:1000C0009FE9980F9A3110F4805208959FEB980F92
:1000D0009A3108F4805E08951F920F920FB60F9226
:1000E00011242F933F934F935F936F937F938F933D
:1000F0009F93AF93BF93EF93FF930E9459000E9489
:1001000060000E945200FF91EF91BF91AF919F91CB
:100110008F917F916F915F914F913F912F910F90B0
:100120000FBE0F901F90189580E88FBF0E9440006F
:06013000FFCFF894FFCFA1
:00000001FF
